{
  "_format": "hh-sol-artifact-1",
  "contractName": "AlbumNFT",
  "sourceName": "contracts/AlbumNFT.sol",
  "abi": [
    {
      "inputs": [],
      "stateMutability": "nonpayable",
      "type": "constructor"
    },
    {
      "anonymous": false,
      "inputs": [
        {
          "indexed": false,
          "internalType": "uint256",
          "name": "tokenId",
          "type": "uint256"
        },
        {
          "indexed": false,
          "internalType": "address",
          "name": "owner",
          "type": "address"
        }
      ],
      "name": "AlbumMinted",
      "type": "event"
    },
    {
      "anonymous": false,
      "inputs": [
        {
          "indexed": true,
          "internalType": "address",
          "name": "owner",
          "type": "address"
        },
        {
          "indexed": true,
          "internalType": "address",
          "name": "approved",
          "type": "address"
        },
        {
          "indexed": true,
          "internalType": "uint256",
          "name": "tokenId",
          "type": "uint256"
        }
      ],
      "name": "Approval",
      "type": "event"
    },
    {
      "anonymous": false,
      "inputs": [
        {
          "indexed": true,
          "internalType": "address",
          "name": "owner",
          "type": "address"
        },
        {
          "indexed": true,
          "internalType": "address",
          "name": "operator",
          "type": "address"
        },
        {
          "indexed": false,
          "internalType": "bool",
          "name": "approved",
          "type": "bool"
        }
      ],
      "name": "ApprovalForAll",
      "type": "event"
    },
    {
      "anonymous": false,
      "inputs": [
        {
          "indexed": true,
          "internalType": "address",
          "name": "previousOwner",
          "type": "address"
        },
        {
          "indexed": true,
          "internalType": "address",
          "name": "newOwner",
          "type": "address"
        }
      ],
      "name": "OwnershipTransferred",
      "type": "event"
    },
    {
      "anonymous": false,
      "inputs": [
        {
          "indexed": true,
          "internalType": "address",
          "name": "from",
          "type": "address"
        },
        {
          "indexed": true,
          "internalType": "address",
          "name": "to",
          "type": "address"
        },
        {
          "indexed": true,
          "internalType": "uint256",
          "name": "tokenId",
          "type": "uint256"
        }
      ],
      "name": "Transfer",
      "type": "event"
    },
    {
      "inputs": [],
      "name": "MAX_TOKENS",
      "outputs": [
        {
          "internalType": "uint256",
          "name": "",
          "type": "uint256"
        }
      ],
      "stateMutability": "view",
      "type": "function"
    },
    {
      "inputs": [
        {
          "internalType": "address[]",
          "name": "addresses",
          "type": "address[]"
        }
      ],
      "name": "addToPresaleList",
      "outputs": [],
      "stateMutability": "nonpayable",
      "type": "function"
    },
    {
      "inputs": [
        {
          "internalType": "address",
          "name": "to",
          "type": "address"
        },
        {
          "internalType": "uint256",
          "name": "tokenId",
          "type": "uint256"
        }
      ],
      "name": "approve",
      "outputs": [],
      "stateMutability": "nonpayable",
      "type": "function"
    },
    {
      "inputs": [
        {
          "internalType": "address",
          "name": "owner",
          "type": "address"
        }
      ],
      "name": "balanceOf",
      "outputs": [
        {
          "internalType": "uint256",
          "name": "",
          "type": "uint256"
        }
      ],
      "stateMutability": "view",
      "type": "function"
    },
    {
      "inputs": [],
      "name": "baseURI",
      "outputs": [
        {
          "internalType": "string",
          "name": "",
          "type": "string"
        }
      ],
      "stateMutability": "view",
      "type": "function"
    },
    {
      "inputs": [],
      "name": "devReserve",
      "outputs": [
        {
          "internalType": "uint256",
          "name": "",
          "type": "uint256"
        }
      ],
      "stateMutability": "view",
      "type": "function"
    },
    {
      "inputs": [
        {
          "internalType": "uint256",
          "name": "tokenId",
          "type": "uint256"
        }
      ],
      "name": "getApproved",
      "outputs": [
        {
          "internalType": "address",
          "name": "",
          "type": "address"
        }
      ],
      "stateMutability": "view",
      "type": "function"
    },
    {
      "inputs": [
        {
          "internalType": "address",
          "name": "owner",
          "type": "address"
        },
        {
          "internalType": "address",
          "name": "operator",
          "type": "address"
        }
      ],
      "name": "isApprovedForAll",
      "outputs": [
        {
          "internalType": "bool",
          "name": "",
          "type": "bool"
        }
      ],
      "stateMutability": "view",
      "type": "function"
    },
    {
      "inputs": [],
      "name": "isRevealed",
      "outputs": [
        {
          "internalType": "bool",
          "name": "",
          "type": "bool"
        }
      ],
      "stateMutability": "view",
      "type": "function"
    },
    {
      "inputs": [],
      "name": "maxTokenPurchase",
      "outputs": [
        {
          "internalType": "uint256",
          "name": "",
          "type": "uint256"
        }
      ],
      "stateMutability": "view",
      "type": "function"
    },
    {
      "inputs": [
        {
          "internalType": "uint256",
          "name": "numberOfTokens",
          "type": "uint256"
        }
      ],
      "name": "mintAlbum",
      "outputs": [],
      "stateMutability": "payable",
      "type": "function"
    },
    {
      "inputs": [],
      "name": "name",
      "outputs": [
        {
          "internalType": "string",
          "name": "",
          "type": "string"
        }
      ],
      "stateMutability": "view",
      "type": "function"
    },
    {
      "inputs": [
        {
          "internalType": "address",
          "name": "addr",
          "type": "address"
        }
      ],
      "name": "onPreSaleList",
      "outputs": [
        {
          "internalType": "bool",
          "name": "",
          "type": "bool"
        }
      ],
      "stateMutability": "view",
      "type": "function"
    },
    {
      "inputs": [],
      "name": "owner",
      "outputs": [
        {
          "internalType": "address",
          "name": "",
          "type": "address"
        }
      ],
      "stateMutability": "view",
      "type": "function"
    },
    {
      "inputs": [
        {
          "internalType": "uint256",
          "name": "tokenId",
          "type": "uint256"
        }
      ],
      "name": "ownerOf",
      "outputs": [
        {
          "internalType": "address",
          "name": "",
          "type": "address"
        }
      ],
      "stateMutability": "view",
      "type": "function"
    },
    {
      "inputs": [
        {
          "internalType": "uint256",
          "name": "numberOfTokens",
          "type": "uint256"
        }
      ],
      "name": "presaleAlbum",
      "outputs": [],
      "stateMutability": "payable",
      "type": "function"
    },
    {
      "inputs": [],
      "name": "presaleIsActive",
      "outputs": [
        {
          "internalType": "bool",
          "name": "",
          "type": "bool"
        }
      ],
      "stateMutability": "view",
      "type": "function"
    },
    {
      "inputs": [],
      "name": "presaleMaxMint",
      "outputs": [
        {
          "internalType": "uint256",
          "name": "",
          "type": "uint256"
        }
      ],
      "stateMutability": "view",
      "type": "function"
    },
    {
      "inputs": [
        {
          "internalType": "address[]",
          "name": "addresses",
          "type": "address[]"
        }
      ],
      "name": "removeFromPresaleList",
      "outputs": [],
      "stateMutability": "nonpayable",
      "type": "function"
    },
    {
      "inputs": [],
      "name": "renounceOwnership",
      "outputs": [],
      "stateMutability": "nonpayable",
      "type": "function"
    },
    {
      "inputs": [
        {
          "internalType": "address",
          "name": "_to",
          "type": "address"
        },
        {
          "internalType": "uint256",
          "name": "_reserveAmount",
          "type": "uint256"
        }
      ],
      "name": "reserveTokens",
      "outputs": [],
      "stateMutability": "nonpayable",
      "type": "function"
    },
    {
      "inputs": [],
      "name": "reveal",
      "outputs": [],
      "stateMutability": "nonpayable",
      "type": "function"
    },
    {
      "inputs": [
        {
          "internalType": "address",
          "name": "from",
          "type": "address"
        },
        {
          "internalType": "address",
          "name": "to",
          "type": "address"
        },
        {
          "internalType": "uint256",
          "name": "tokenId",
          "type": "uint256"
        }
      ],
      "name": "safeTransferFrom",
      "outputs": [],
      "stateMutability": "nonpayable",
      "type": "function"
    },
    {
      "inputs": [
        {
          "internalType": "address",
          "name": "from",
          "type": "address"
        },
        {
          "internalType": "address",
          "name": "to",
          "type": "address"
        },
        {
          "internalType": "uint256",
          "name": "tokenId",
          "type": "uint256"
        },
        {
          "internalType": "bytes",
          "name": "_data",
          "type": "bytes"
        }
      ],
      "name": "safeTransferFrom",
      "outputs": [],
      "stateMutability": "nonpayable",
      "type": "function"
    },
    {
      "inputs": [],
      "name": "saleIsActive",
      "outputs": [
        {
          "internalType": "bool",
          "name": "",
          "type": "bool"
        }
      ],
      "stateMutability": "view",
      "type": "function"
    },
    {
      "inputs": [
        {
          "internalType": "address",
          "name": "operator",
          "type": "address"
        },
        {
          "internalType": "bool",
          "name": "approved",
          "type": "bool"
        }
      ],
      "name": "setApprovalForAll",
      "outputs": [],
      "stateMutability": "nonpayable",
      "type": "function"
    },
    {
      "inputs": [
        {
          "internalType": "string",
          "name": "_newBaseURI",
          "type": "string"
        }
      ],
      "name": "setBaseURI",
      "outputs": [],
      "stateMutability": "nonpayable",
      "type": "function"
    },
    {
      "inputs": [
        {
          "internalType": "uint256",
          "name": "maxMint",
          "type": "uint256"
        }
      ],
      "name": "setPresaleMaxMint",
      "outputs": [],
      "stateMutability": "nonpayable",
      "type": "function"
    },
    {
      "inputs": [
        {
          "internalType": "bytes4",
          "name": "interfaceId",
          "type": "bytes4"
        }
      ],
      "name": "supportsInterface",
      "outputs": [
        {
          "internalType": "bool",
          "name": "",
          "type": "bool"
        }
      ],
      "stateMutability": "view",
      "type": "function"
    },
    {
      "inputs": [],
      "name": "symbol",
      "outputs": [
        {
          "internalType": "string",
          "name": "",
          "type": "string"
        }
      ],
      "stateMutability": "view",
      "type": "function"
    },
    {
      "inputs": [],
      "name": "togglePresaleState",
      "outputs": [],
      "stateMutability": "nonpayable",
      "type": "function"
    },
    {
      "inputs": [],
      "name": "toggleSaleState",
      "outputs": [],
      "stateMutability": "nonpayable",
      "type": "function"
    },
    {
      "inputs": [
        {
          "internalType": "uint256",
          "name": "index",
          "type": "uint256"
        }
      ],
      "name": "tokenByIndex",
      "outputs": [
        {
          "internalType": "uint256",
          "name": "",
          "type": "uint256"
        }
      ],
      "stateMutability": "view",
      "type": "function"
    },
    {
      "inputs": [
        {
          "internalType": "address",
          "name": "owner",
          "type": "address"
        },
        {
          "internalType": "uint256",
          "name": "index",
          "type": "uint256"
        }
      ],
      "name": "tokenOfOwnerByIndex",
      "outputs": [
        {
          "internalType": "uint256",
          "name": "",
          "type": "uint256"
        }
      ],
      "stateMutability": "view",
      "type": "function"
    },
    {
      "inputs": [],
      "name": "tokenPrice",
      "outputs": [
        {
          "internalType": "uint256",
          "name": "",
          "type": "uint256"
        }
      ],
      "stateMutability": "view",
      "type": "function"
    },
    {
      "inputs": [
        {
          "internalType": "uint256",
          "name": "tokenId",
          "type": "uint256"
        }
      ],
      "name": "tokenURI",
      "outputs": [
        {
          "internalType": "string",
          "name": "",
          "type": "string"
        }
      ],
      "stateMutability": "view",
      "type": "function"
    },
    {
      "inputs": [
        {
          "internalType": "address",
          "name": "_owner",
          "type": "address"
        }
      ],
      "name": "tokensOfOwner",
      "outputs": [
        {
          "internalType": "uint256[]",
          "name": "",
          "type": "uint256[]"
        }
      ],
      "stateMutability": "view",
      "type": "function"
    },
    {
      "inputs": [],
      "name": "totalSupply",
      "outputs": [
        {
          "internalType": "uint256",
          "name": "",
          "type": "uint256"
        }
      ],
      "stateMutability": "view",
      "type": "function"
    },
    {
      "inputs": [
        {
          "internalType": "address",
          "name": "from",
          "type": "address"
        },
        {
          "internalType": "address",
          "name": "to",
          "type": "address"
        },
        {
          "internalType": "uint256",
          "name": "tokenId",
          "type": "uint256"
        }
      ],
      "name": "transferFrom",
      "outputs": [],
      "stateMutability": "nonpayable",
      "type": "function"
    },
    {
      "inputs": [
        {
          "internalType": "address",
          "name": "newOwner",
          "type": "address"
        }
      ],
      "name": "transferOwnership",
      "outputs": [],
      "stateMutability": "nonpayable",
      "type": "function"
    },
    {
      "inputs": [],
      "name": "withdraw",
      "outputs": [],
      "stateMutability": "payable",
      "type": "function"
    }
  ],
  "bytecode": "0x60806040526040518060600160405280603681526020016200576660369139600b90805190602001906200003592919062000233565b506001600c60006101000a81548160ff0219169083151502179055506000600c60016101000a81548160ff0219169083151502179055506001600c60026101000a81548160ff0219169083151502179055506002600f5560406010553480156200009e57600080fd5b506040518060400160405280600881526020017f416c62756d4e46540000000000000000000000000000000000000000000000008152506040518060400160405280600281526020017f455000000000000000000000000000000000000000000000000000000000000081525081600090805190602001906200012392919062000233565b5080600190805190602001906200013c92919062000233565b5050506200015f620001536200016560201b60201c565b6200016d60201b60201c565b62000348565b600033905090565b6000600660009054906101000a900473ffffffffffffffffffffffffffffffffffffffff16905081600660006101000a81548173ffffffffffffffffffffffffffffffffffffffff021916908373ffffffffffffffffffffffffffffffffffffffff1602179055508173ffffffffffffffffffffffffffffffffffffffff168173ffffffffffffffffffffffffffffffffffffffff167f8be0079c531659141344cd1fd0a4f28419497f9722a3daafe3b4186f6b6457e060405160405180910390a35050565b8280546200024190620002e3565b90600052602060002090601f016020900481019282620002655760008555620002b1565b82601f106200028057805160ff1916838001178555620002b1565b82800160010185558215620002b1579182015b82811115620002b057825182559160200191906001019062000293565b5b509050620002c09190620002c4565b5090565b5b80821115620002df576000816000905550600101620002c5565b5090565b60006002820490506001821680620002fc57607f821691505b6020821081141562000313576200031262000319565b5b50919050565b7f4e487b7100000000000000000000000000000000000000000000000000000000600052602260045260246000fd5b61540e80620003586000396000f3fe6080604052600436106102465760003560e01c806378cf19e911610139578063c87b56dd116100b6578063eb8d24441161007a578063eb8d244414610860578063eed8e5211461088b578063f285e69e146108a7578063f2fde38b146108be578063f47c84c5146108e7578063fcd2a4271461091257610246565b8063c87b56dd1461078a578063ce2cf90b146107c7578063daaeec86146107e3578063df4305d2146107fa578063e985e9c51461082357610246565b806395d89b41116100fd57806395d89b41146106cd578063a22cb465146106f8578063a475b5dd14610721578063b179e06014610738578063b88d4fde1461076157610246565b806378cf19e9146105e65780637ff9b5961461060f5780638462151c1461063a5780638da5cb5b14610677578063946ef42a146106a257610246565b80633ccfd60b116101c75780636352211e1161018b5780636352211e146105015780636c0360eb1461053e57806370a0823114610569578063715018a6146105a65780637204a3c9146105bd57610246565b80633ccfd60b1461043d57806342842e0e146104475780634f6ccce71461047057806354214f69146104ad57806355f804b3146104d857610246565b806311576b791161020e57806311576b791461034457806318160ddd1461038157806323b872dd146103ac5780632f745c59146103d557806330f72cd41461041257610246565b806301ffc9a71461024b57806306fdde0314610288578063081812fc146102b3578063095ea7b3146102f057806309aa3dcf14610319575b600080fd5b34801561025757600080fd5b50610272600480360381019061026d9190613bff565b61093d565b60405161027f919061431a565b60405180910390f35b34801561029457600080fd5b5061029d61094f565b6040516102aa9190614335565b60405180910390f35b3480156102bf57600080fd5b506102da60048036038101906102d59190613c92565b6109e1565b6040516102e79190614291565b60405180910390f35b3480156102fc57600080fd5b5061031760048036038101906103129190613b7e565b610a66565b005b34801561032557600080fd5b5061032e610b7e565b60405161033b91906146f7565b60405180910390f35b34801561035057600080fd5b5061036b60048036038101906103669190613a13565b610b83565b604051610378919061431a565b60405180910390f35b34801561038d57600080fd5b50610396610bd9565b6040516103a391906146f7565b60405180910390f35b3480156103b857600080fd5b506103d360048036038101906103ce9190613a78565b610be6565b005b3480156103e157600080fd5b506103fc60048036038101906103f79190613b7e565b610c46565b60405161040991906146f7565b60405180910390f35b34801561041e57600080fd5b50610427610ceb565b604051610434919061431a565b60405180910390f35b610445610cfe565b005b34801561045357600080fd5b5061046e60048036038101906104699190613a78565b610dfa565b005b34801561047c57600080fd5b5061049760048036038101906104929190613c92565b610e1a565b6040516104a491906146f7565b60405180910390f35b3480156104b957600080fd5b506104c2610eb1565b6040516104cf919061431a565b60405180910390f35b3480156104e457600080fd5b506104ff60048036038101906104fa9190613c51565b610ec4565b005b34801561050d57600080fd5b5061052860048036038101906105239190613c92565b610f5a565b6040516105359190614291565b60405180910390f35b34801561054a57600080fd5b5061055361100c565b6040516105609190614335565b60405180910390f35b34801561057557600080fd5b50610590600480360381019061058b9190613a13565b61109a565b60405161059d91906146f7565b60405180910390f35b3480156105b257600080fd5b506105bb611152565b005b3480156105c957600080fd5b506105e460048036038101906105df9190613bba565b6111da565b005b3480156105f257600080fd5b5061060d60048036038101906106089190613b7e565b6113de565b005b34801561061b57600080fd5b50610624611500565b60405161063191906146f7565b60405180910390f35b34801561064657600080fd5b50610661600480360381019061065c9190613a13565b61150b565b60405161066e91906142f8565b60405180910390f35b34801561068357600080fd5b5061068c611687565b6040516106999190614291565b60405180910390f35b3480156106ae57600080fd5b506106b76116b1565b6040516106c491906146f7565b60405180910390f35b3480156106d957600080fd5b506106e26116b7565b6040516106ef9190614335565b60405180910390f35b34801561070457600080fd5b5061071f600480360381019061071a9190613b42565b611749565b005b34801561072d57600080fd5b5061073661175f565b005b34801561074457600080fd5b5061075f600480360381019061075a9190613bba565b6117f8565b005b34801561076d57600080fd5b5061078860048036038101906107839190613ac7565b6119fc565b005b34801561079657600080fd5b506107b160048036038101906107ac9190613c92565b611a5e565b6040516107be9190614335565b60405180910390f35b6107e160048036038101906107dc9190613c92565b611b43565b005b3480156107ef57600080fd5b506107f8611ead565b005b34801561080657600080fd5b50610821600480360381019061081c9190613c92565b611f55565b005b34801561082f57600080fd5b5061084a60048036038101906108459190613a3c565b611fdb565b604051610857919061431a565b60405180910390f35b34801561086c57600080fd5b5061087561206f565b604051610882919061431a565b60405180910390f35b6108a560048036038101906108a09190613c92565b612082565b005b3480156108b357600080fd5b506108bc612272565b005b3480156108ca57600080fd5b506108e560048036038101906108e09190613a13565b61231a565b005b3480156108f357600080fd5b506108fc612412565b60405161090991906146f7565b60405180910390f35b34801561091e57600080fd5b50610927612418565b60405161093491906146f7565b60405180910390f35b60006109488261241e565b9050919050565b60606000805461095e90614a14565b80601f016020809104026020016040519081016040528092919081815260200182805461098a90614a14565b80156109d75780601f106109ac576101008083540402835291602001916109d7565b820191906000526020600020905b8154815290600101906020018083116109ba57829003601f168201915b5050505050905090565b60006109ec82612498565b610a2b576040517f08c379a0000000000000000000000000000000000000000000000000000000008152600401610a2290614577565b60405180910390fd5b6004600083815260200190815260200160002060009054906101000a900473ffffffffffffffffffffffffffffffffffffffff169050919050565b6000610a7182610f5a565b90508073ffffffffffffffffffffffffffffffffffffffff168373ffffffffffffffffffffffffffffffffffffffff161415610ae2576040517f08c379a0000000000000000000000000000000000000000000000000000000008152600401610ad990614637565b60405180910390fd5b8073ffffffffffffffffffffffffffffffffffffffff16610b01612504565b73ffffffffffffffffffffffffffffffffffffffff161480610b305750610b2f81610b2a612504565b611fdb565b5b610b6f576040517f08c379a0000000000000000000000000000000000000000000000000000000008152600401610b66906144d7565b60405180910390fd5b610b79838361250c565b505050565b600381565b6000600d60008373ffffffffffffffffffffffffffffffffffffffff1673ffffffffffffffffffffffffffffffffffffffff16815260200190815260200160002060009054906101000a900460ff169050919050565b6000600980549050905090565b610bf7610bf1612504565b826125c5565b610c36576040517f08c379a0000000000000000000000000000000000000000000000000000000008152600401610c2d90614657565b60405180910390fd5b610c418383836126a3565b505050565b6000610c518361109a565b8210610c92576040517f08c379a0000000000000000000000000000000000000000000000000000000008152600401610c8990614377565b60405180910390fd5b600760008473ffffffffffffffffffffffffffffffffffffffff1673ffffffffffffffffffffffffffffffffffffffff168152602001908152602001600020600083815260200190815260200160002054905092915050565b600c60019054906101000a900460ff1681565b610d06612504565b73ffffffffffffffffffffffffffffffffffffffff16610d24611687565b73ffffffffffffffffffffffffffffffffffffffff1614610d7a576040517f08c379a0000000000000000000000000000000000000000000000000000000008152600401610d7190614597565b60405180910390fd5b6000610d84611687565b73ffffffffffffffffffffffffffffffffffffffff1647604051610da79061427c565b60006040518083038185875af1925050503d8060008114610de4576040519150601f19603f3d011682016040523d82523d6000602084013e610de9565b606091505b5050905080610df757600080fd5b50565b610e15838383604051806020016040528060008152506119fc565b505050565b6000610e24610bd9565b8210610e65576040517f08c379a0000000000000000000000000000000000000000000000000000000008152600401610e5c90614677565b60405180910390fd5b60098281548110610e9f577f4e487b7100000000000000000000000000000000000000000000000000000000600052603260045260246000fd5b90600052602060002001549050919050565b600c60029054906101000a900460ff1681565b610ecc612504565b73ffffffffffffffffffffffffffffffffffffffff16610eea611687565b73ffffffffffffffffffffffffffffffffffffffff1614610f40576040517f08c379a0000000000000000000000000000000000000000000000000000000008152600401610f3790614597565b60405180910390fd5b80600b9080519060200190610f569291906137ed565b5050565b6000806002600084815260200190815260200160002060009054906101000a900473ffffffffffffffffffffffffffffffffffffffff169050600073ffffffffffffffffffffffffffffffffffffffff168173ffffffffffffffffffffffffffffffffffffffff161415611003576040517f08c379a0000000000000000000000000000000000000000000000000000000008152600401610ffa90614517565b60405180910390fd5b80915050919050565b600b805461101990614a14565b80601f016020809104026020016040519081016040528092919081815260200182805461104590614a14565b80156110925780601f1061106757610100808354040283529160200191611092565b820191906000526020600020905b81548152906001019060200180831161107557829003601f168201915b505050505081565b60008073ffffffffffffffffffffffffffffffffffffffff168273ffffffffffffffffffffffffffffffffffffffff16141561110b576040517f08c379a0000000000000000000000000000000000000000000000000000000008152600401611102906144f7565b60405180910390fd5b600360008373ffffffffffffffffffffffffffffffffffffffff1673ffffffffffffffffffffffffffffffffffffffff168152602001908152602001600020549050919050565b61115a612504565b73ffffffffffffffffffffffffffffffffffffffff16611178611687565b73ffffffffffffffffffffffffffffffffffffffff16146111ce576040517f08c379a00000000000000000000000000000000000000000000000000000000081526004016111c590614597565b60405180910390fd5b6111d860006128ff565b565b6111e2612504565b73ffffffffffffffffffffffffffffffffffffffff16611200611687565b73ffffffffffffffffffffffffffffffffffffffff1614611256576040517f08c379a000000000000000000000000000000000000000000000000000000000815260040161124d90614597565b60405180910390fd5b60005b828290508110156113d957600073ffffffffffffffffffffffffffffffffffffffff168383838181106112b5577f4e487b7100000000000000000000000000000000000000000000000000000000600052603260045260246000fd5b90506020020160208101906112ca9190613a13565b73ffffffffffffffffffffffffffffffffffffffff161415611321576040517f08c379a0000000000000000000000000000000000000000000000000000000008152600401611318906145b7565b60405180910390fd5b6001600d6000858585818110611360577f4e487b7100000000000000000000000000000000000000000000000000000000600052603260045260246000fd5b90506020020160208101906113759190613a13565b73ffffffffffffffffffffffffffffffffffffffff1673ffffffffffffffffffffffffffffffffffffffff16815260200190815260200160002060006101000a81548160ff02191690831515021790555080806113d190614a77565b915050611259565b505050565b6113e6612504565b73ffffffffffffffffffffffffffffffffffffffff16611404611687565b73ffffffffffffffffffffffffffffffffffffffff161461145a576040517f08c379a000000000000000000000000000000000000000000000000000000000815260040161145190614597565b60405180910390fd5b60008111801561146c57506010548111155b6114ab576040517f08c379a00000000000000000000000000000000000000000000000000000000081526004016114a290614437565b60405180910390fd5b60005b818110156114e05760006114c0610bd9565b90506114cc84826129c5565b5080806114d890614a77565b9150506114ae565b506114f6816010546129e390919063ffffffff16565b6010819055505050565b6606c00a3912c00081565b606060006115188361109a565b9050600081141561159b57600067ffffffffffffffff811115611564577f4e487b7100000000000000000000000000000000000000000000000000000000600052604160045260246000fd5b6040519080825280602002602001820160405280156115925781602001602082028036833780820191505090505b50915050611682565b60008167ffffffffffffffff8111156115dd577f4e487b7100000000000000000000000000000000000000000000000000000000600052604160045260246000fd5b60405190808252806020026020018201604052801561160b5781602001602082028036833780820191505090505b50905060005b8281101561167b576116238582610c46565b82828151811061165c577f4e487b7100000000000000000000000000000000000000000000000000000000600052603260045260246000fd5b602002602001018181525050808061167390614a77565b915050611611565b8193505050505b919050565b6000600660009054906101000a900473ffffffffffffffffffffffffffffffffffffffff16905090565b600f5481565b6060600180546116c690614a14565b80601f01602080910402602001604051908101604052809291908181526020018280546116f290614a14565b801561173f5780601f106117145761010080835404028352916020019161173f565b820191906000526020600020905b81548152906001019060200180831161172257829003601f168201915b5050505050905090565b61175b611754612504565b83836129f9565b5050565b611767612504565b73ffffffffffffffffffffffffffffffffffffffff16611785611687565b73ffffffffffffffffffffffffffffffffffffffff16146117db576040517f08c379a00000000000000000000000000000000000000000000000000000000081526004016117d290614597565b60405180910390fd5b6001600c60026101000a81548160ff021916908315150217905550565b611800612504565b73ffffffffffffffffffffffffffffffffffffffff1661181e611687565b73ffffffffffffffffffffffffffffffffffffffff1614611874576040517f08c379a000000000000000000000000000000000000000000000000000000000815260040161186b90614597565b60405180910390fd5b60005b828290508110156119f757600073ffffffffffffffffffffffffffffffffffffffff168383838181106118d3577f4e487b7100000000000000000000000000000000000000000000000000000000600052603260045260246000fd5b90506020020160208101906118e89190613a13565b73ffffffffffffffffffffffffffffffffffffffff16141561193f576040517f08c379a0000000000000000000000000000000000000000000000000000000008152600401611936906145b7565b60405180910390fd5b6000600d600085858581811061197e577f4e487b7100000000000000000000000000000000000000000000000000000000600052603260045260246000fd5b90506020020160208101906119939190613a13565b73ffffffffffffffffffffffffffffffffffffffff1673ffffffffffffffffffffffffffffffffffffffff16815260200190815260200160002060006101000a81548160ff02191690831515021790555080806119ef90614a77565b915050611877565b505050565b611a0d611a07612504565b836125c5565b611a4c576040517f08c379a0000000000000000000000000000000000000000000000000000000008152600401611a4390614657565b60405180910390fd5b611a5884848484612b66565b50505050565b6060611a6982612498565b611aa8576040517f08c379a0000000000000000000000000000000000000000000000000000000008152600401611a9f90614617565b60405180910390fd5b6000611ab2612bc2565b905060001515600c60029054906101000a900460ff1615151415611af15760405180608001604052806041815260200161539860419139915050611b3e565b6000815111611b0f5760405180602001604052806000815250611b3a565b80611b1984612c54565b604051602001611b2a92919061424d565b6040516020818303038152906040525b9150505b919050565b600c60019054906101000a900460ff16611b92576040517f08c379a0000000000000000000000000000000000000000000000000000000008152600401611b8990614697565b60405180910390fd5b600d60003373ffffffffffffffffffffffffffffffffffffffff1673ffffffffffffffffffffffffffffffffffffffff16815260200190815260200160002060009054906101000a900460ff16611c1e576040517f08c379a0000000000000000000000000000000000000000000000000000000008152600401611c15906143f7565b60405180910390fd5b612710611c3b82611c2d610bd9565b612e0190919063ffffffff16565b1115611c7c576040517f08c379a0000000000000000000000000000000000000000000000000000000008152600401611c73906145d7565b60405180910390fd5b600081118015611c8e5750600f548111155b611ccd576040517f08c379a0000000000000000000000000000000000000000000000000000000008152600401611cc4906146d7565b60405180910390fd5b600f54611d2282600e60003373ffffffffffffffffffffffffffffffffffffffff1673ffffffffffffffffffffffffffffffffffffffff16815260200190815260200160002054612e0190919063ffffffff16565b1115611d63576040517f08c379a0000000000000000000000000000000000000000000000000000000008152600401611d5a906146b7565b60405180910390fd5b611d7d816606c00a3912c000612e1790919063ffffffff16565b341015611dbf576040517f08c379a0000000000000000000000000000000000000000000000000000000008152600401611db690614497565b60405180910390fd5b60005b81811015611ea9576000611de76001611dd9610bd9565b612e0190919063ffffffff16565b9050612710611df4610bd9565b1015611e95576001600e60003373ffffffffffffffffffffffffffffffffffffffff1673ffffffffffffffffffffffffffffffffffffffff1681526020019081526020016000206000828254611e4a9190614849565b92505081905550611e5b33826129c5565b7f5fc45f04e55ee3515fba1146aa2301f62b25b3cbdd490c7a672bf37d69cf8c818133604051611e8c929190614712565b60405180910390a15b508080611ea190614a77565b915050611dc2565b5050565b611eb5612504565b73ffffffffffffffffffffffffffffffffffffffff16611ed3611687565b73ffffffffffffffffffffffffffffffffffffffff1614611f29576040517f08c379a0000000000000000000000000000000000000000000000000000000008152600401611f2090614597565b60405180910390fd5b600c60009054906101000a900460ff1615600c60006101000a81548160ff021916908315150217905550565b611f5d612504565b73ffffffffffffffffffffffffffffffffffffffff16611f7b611687565b73ffffffffffffffffffffffffffffffffffffffff1614611fd1576040517f08c379a0000000000000000000000000000000000000000000000000000000008152600401611fc890614597565b60405180910390fd5b80600f8190555050565b6000600560008473ffffffffffffffffffffffffffffffffffffffff1673ffffffffffffffffffffffffffffffffffffffff16815260200190815260200160002060008373ffffffffffffffffffffffffffffffffffffffff1673ffffffffffffffffffffffffffffffffffffffff16815260200190815260200160002060009054906101000a900460ff16905092915050565b600c60009054906101000a900460ff1681565b600c60009054906101000a900460ff166120d1576040517f08c379a00000000000000000000000000000000000000000000000000000000081526004016120c890614417565b60405180910390fd5b6000811180156120e2575060038111155b612121576040517f08c379a000000000000000000000000000000000000000000000000000000000815260040161211890614357565b60405180910390fd5b61271061213e82612130610bd9565b612e0190919063ffffffff16565b111561217f576040517f08c379a000000000000000000000000000000000000000000000000000000000815260040161217690614537565b60405180910390fd5b612199816606c00a3912c000612e1790919063ffffffff16565b3410156121db576040517f08c379a00000000000000000000000000000000000000000000000000000000081526004016121d290614497565b60405180910390fd5b60005b8181101561226e57600061220360016121f5610bd9565b612e0190919063ffffffff16565b9050612710612210610bd9565b101561225a5761222033826129c5565b7f5fc45f04e55ee3515fba1146aa2301f62b25b3cbdd490c7a672bf37d69cf8c818133604051612251929190614712565b60405180910390a15b50808061226690614a77565b9150506121de565b5050565b61227a612504565b73ffffffffffffffffffffffffffffffffffffffff16612298611687565b73ffffffffffffffffffffffffffffffffffffffff16146122ee576040517f08c379a00000000000000000000000000000000000000000000000000000000081526004016122e590614597565b60405180910390fd5b600c60019054906101000a900460ff1615600c60016101000a81548160ff021916908315150217905550565b612322612504565b73ffffffffffffffffffffffffffffffffffffffff16612340611687565b73ffffffffffffffffffffffffffffffffffffffff1614612396576040517f08c379a000000000000000000000000000000000000000000000000000000000815260040161238d90614597565b60405180910390fd5b600073ffffffffffffffffffffffffffffffffffffffff168173ffffffffffffffffffffffffffffffffffffffff161415612406576040517f08c379a00000000000000000000000000000000000000000000000000000000081526004016123fd906143b7565b60405180910390fd5b61240f816128ff565b50565b61271081565b60105481565b60007f780e9d63000000000000000000000000000000000000000000000000000000007bffffffffffffffffffffffffffffffffffffffffffffffffffffffff1916827bffffffffffffffffffffffffffffffffffffffffffffffffffffffff19161480612491575061249082612e2d565b5b9050919050565b60008073ffffffffffffffffffffffffffffffffffffffff166002600084815260200190815260200160002060009054906101000a900473ffffffffffffffffffffffffffffffffffffffff1673ffffffffffffffffffffffffffffffffffffffff1614159050919050565b600033905090565b816004600083815260200190815260200160002060006101000a81548173ffffffffffffffffffffffffffffffffffffffff021916908373ffffffffffffffffffffffffffffffffffffffff160217905550808273ffffffffffffffffffffffffffffffffffffffff1661257f83610f5a565b73ffffffffffffffffffffffffffffffffffffffff167f8c5be1e5ebec7d5bd14f71427d1e84f3dd0314c0f7b2291e5b200ac8c7c3b92560405160405180910390a45050565b60006125d082612498565b61260f576040517f08c379a0000000000000000000000000000000000000000000000000000000008152600401612606906144b7565b60405180910390fd5b600061261a83610f5a565b90508073ffffffffffffffffffffffffffffffffffffffff168473ffffffffffffffffffffffffffffffffffffffff16148061268957508373ffffffffffffffffffffffffffffffffffffffff16612671846109e1565b73ffffffffffffffffffffffffffffffffffffffff16145b8061269a57506126998185611fdb565b5b91505092915050565b8273ffffffffffffffffffffffffffffffffffffffff166126c382610f5a565b73ffffffffffffffffffffffffffffffffffffffff1614612719576040517f08c379a0000000000000000000000000000000000000000000000000000000008152600401612710906145f7565b60405180910390fd5b600073ffffffffffffffffffffffffffffffffffffffff168273ffffffffffffffffffffffffffffffffffffffff161415612789576040517f08c379a000000000000000000000000000000000000000000000000000000000815260040161278090614457565b60405180910390fd5b612794838383612f0f565b61279f60008261250c565b6001600360008573ffffffffffffffffffffffffffffffffffffffff1673ffffffffffffffffffffffffffffffffffffffff16815260200190815260200160002060008282546127ef919061492a565b925050819055506001600360008473ffffffffffffffffffffffffffffffffffffffff1673ffffffffffffffffffffffffffffffffffffffff16815260200190815260200160002060008282546128469190614849565b92505081905550816002600083815260200190815260200160002060006101000a81548173ffffffffffffffffffffffffffffffffffffffff021916908373ffffffffffffffffffffffffffffffffffffffff160217905550808273ffffffffffffffffffffffffffffffffffffffff168473ffffffffffffffffffffffffffffffffffffffff167fddf252ad1be2c89b69c2b068fc378daa952ba7f163c4a11628f55a4df523b3ef60405160405180910390a4505050565b6000600660009054906101000a900473ffffffffffffffffffffffffffffffffffffffff16905081600660006101000a81548173ffffffffffffffffffffffffffffffffffffffff021916908373ffffffffffffffffffffffffffffffffffffffff1602179055508173ffffffffffffffffffffffffffffffffffffffff168173ffffffffffffffffffffffffffffffffffffffff167f8be0079c531659141344cd1fd0a4f28419497f9722a3daafe3b4186f6b6457e060405160405180910390a35050565b6129df828260405180602001604052806000815250612f1f565b5050565b600081836129f1919061492a565b905092915050565b8173ffffffffffffffffffffffffffffffffffffffff168373ffffffffffffffffffffffffffffffffffffffff161415612a68576040517f08c379a0000000000000000000000000000000000000000000000000000000008152600401612a5f90614477565b60405180910390fd5b80600560008573ffffffffffffffffffffffffffffffffffffffff1673ffffffffffffffffffffffffffffffffffffffff16815260200190815260200160002060008473ffffffffffffffffffffffffffffffffffffffff1673ffffffffffffffffffffffffffffffffffffffff16815260200190815260200160002060006101000a81548160ff0219169083151502179055508173ffffffffffffffffffffffffffffffffffffffff168373ffffffffffffffffffffffffffffffffffffffff167f17307eab39ab6107e8899845ad3d59bd9653f200f220920489ca2b5937696c3183604051612b59919061431a565b60405180910390a3505050565b612b718484846126a3565b612b7d84848484612f7a565b612bbc576040517f08c379a0000000000000000000000000000000000000000000000000000000008152600401612bb390614397565b60405180910390fd5b50505050565b6060600b8054612bd190614a14565b80601f0160208091040260200160405190810160405280929190818152602001828054612bfd90614a14565b8015612c4a5780601f10612c1f57610100808354040283529160200191612c4a565b820191906000526020600020905b815481529060010190602001808311612c2d57829003601f168201915b5050505050905090565b60606000821415612c9c576040518060400160405280600181526020017f30000000000000000000000000000000000000000000000000000000000000008152509050612dfc565b600082905060005b60008214612cce578080612cb790614a77565b915050600a82612cc7919061489f565b9150612ca4565b60008167ffffffffffffffff811115612d10577f4e487b7100000000000000000000000000000000000000000000000000000000600052604160045260246000fd5b6040519080825280601f01601f191660200182016040528015612d425781602001600182028036833780820191505090505b5090505b60008514612df557600182612d5b919061492a565b9150600a85612d6a9190614ac0565b6030612d769190614849565b60f81b818381518110612db2577f4e487b7100000000000000000000000000000000000000000000000000000000600052603260045260246000fd5b60200101907effffffffffffffffffffffffffffffffffffffffffffffffffffffffffffff1916908160001a905350600a85612dee919061489f565b9450612d46565b8093505050505b919050565b60008183612e0f9190614849565b905092915050565b60008183612e2591906148d0565b905092915050565b60007f80ac58cd000000000000000000000000000000000000000000000000000000007bffffffffffffffffffffffffffffffffffffffffffffffffffffffff1916827bffffffffffffffffffffffffffffffffffffffffffffffffffffffff19161480612ef857507f5b5e139f000000000000000000000000000000000000000000000000000000007bffffffffffffffffffffffffffffffffffffffffffffffffffffffff1916827bffffffffffffffffffffffffffffffffffffffffffffffffffffffff1916145b80612f085750612f0782613111565b5b9050919050565b612f1a83838361317b565b505050565b612f29838361328f565b612f366000848484612f7a565b612f75576040517f08c379a0000000000000000000000000000000000000000000000000000000008152600401612f6c90614397565b60405180910390fd5b505050565b6000612f9b8473ffffffffffffffffffffffffffffffffffffffff1661345d565b15613104578373ffffffffffffffffffffffffffffffffffffffff1663150b7a02612fc4612504565b8786866040518563ffffffff1660e01b8152600401612fe694939291906142ac565b602060405180830381600087803b15801561300057600080fd5b505af192505050801561303157506040513d601f19601f8201168201806040525081019061302e9190613c28565b60015b6130b4573d8060008114613061576040519150601f19603f3d011682016040523d82523d6000602084013e613066565b606091505b506000815114156130ac576040517f08c379a00000000000000000000000000000000000000000000000000000000081526004016130a390614397565b60405180910390fd5b805181602001fd5b63150b7a0260e01b7bffffffffffffffffffffffffffffffffffffffffffffffffffffffff1916817bffffffffffffffffffffffffffffffffffffffffffffffffffffffff191614915050613109565b600190505b949350505050565b60007f01ffc9a7000000000000000000000000000000000000000000000000000000007bffffffffffffffffffffffffffffffffffffffffffffffffffffffff1916827bffffffffffffffffffffffffffffffffffffffffffffffffffffffff1916149050919050565b613186838383613470565b600073ffffffffffffffffffffffffffffffffffffffff168373ffffffffffffffffffffffffffffffffffffffff1614156131c9576131c481613475565b613208565b8173ffffffffffffffffffffffffffffffffffffffff168373ffffffffffffffffffffffffffffffffffffffff16146132075761320683826134be565b5b5b600073ffffffffffffffffffffffffffffffffffffffff168273ffffffffffffffffffffffffffffffffffffffff16141561324b576132468161362b565b61328a565b8273ffffffffffffffffffffffffffffffffffffffff168273ffffffffffffffffffffffffffffffffffffffff161461328957613288828261376e565b5b5b505050565b600073ffffffffffffffffffffffffffffffffffffffff168273ffffffffffffffffffffffffffffffffffffffff1614156132ff576040517f08c379a00000000000000000000000000000000000000000000000000000000081526004016132f690614557565b60405180910390fd5b61330881612498565b15613348576040517f08c379a000000000000000000000000000000000000000000000000000000000815260040161333f906143d7565b60405180910390fd5b61335460008383612f0f565b6001600360008473ffffffffffffffffffffffffffffffffffffffff1673ffffffffffffffffffffffffffffffffffffffff16815260200190815260200160002060008282546133a49190614849565b92505081905550816002600083815260200190815260200160002060006101000a81548173ffffffffffffffffffffffffffffffffffffffff021916908373ffffffffffffffffffffffffffffffffffffffff160217905550808273ffffffffffffffffffffffffffffffffffffffff16600073ffffffffffffffffffffffffffffffffffffffff167fddf252ad1be2c89b69c2b068fc378daa952ba7f163c4a11628f55a4df523b3ef60405160405180910390a45050565b600080823b905060008111915050919050565b505050565b600980549050600a600083815260200190815260200160002081905550600981908060018154018082558091505060019003906000526020600020016000909190919091505550565b600060016134cb8461109a565b6134d5919061492a565b90506000600860008481526020019081526020016000205490508181146135ba576000600760008673ffffffffffffffffffffffffffffffffffffffff1673ffffffffffffffffffffffffffffffffffffffff168152602001908152602001600020600084815260200190815260200160002054905080600760008773ffffffffffffffffffffffffffffffffffffffff1673ffffffffffffffffffffffffffffffffffffffff168152602001908152602001600020600084815260200190815260200160002081905550816008600083815260200190815260200160002081905550505b6008600084815260200190815260200160002060009055600760008573ffffffffffffffffffffffffffffffffffffffff1673ffffffffffffffffffffffffffffffffffffffff16815260200190815260200160002060008381526020019081526020016000206000905550505050565b6000600160098054905061363f919061492a565b90506000600a6000848152602001908152602001600020549050600060098381548110613695577f4e487b7100000000000000000000000000000000000000000000000000000000600052603260045260246000fd5b9060005260206000200154905080600983815481106136dd577f4e487b7100000000000000000000000000000000000000000000000000000000600052603260045260246000fd5b906000526020600020018190555081600a600083815260200190815260200160002081905550600a6000858152602001908152602001600020600090556009805480613752577f4e487b7100000000000000000000000000000000000000000000000000000000600052603160045260246000fd5b6001900381819060005260206000200160009055905550505050565b60006137798361109a565b905081600760008573ffffffffffffffffffffffffffffffffffffffff1673ffffffffffffffffffffffffffffffffffffffff168152602001908152602001600020600083815260200190815260200160002081905550806008600084815260200190815260200160002081905550505050565b8280546137f990614a14565b90600052602060002090601f01602090048101928261381b5760008555613862565b82601f1061383457805160ff1916838001178555613862565b82800160010185558215613862579182015b82811115613861578251825591602001919060010190613846565b5b50905061386f9190613873565b5090565b5b8082111561388c576000816000905550600101613874565b5090565b60006138a361389e84614760565b61473b565b9050828152602081018484840111156138bb57600080fd5b6138c68482856149d2565b509392505050565b60006138e16138dc84614791565b61473b565b9050828152602081018484840111156138f957600080fd5b6139048482856149d2565b509392505050565b60008135905061391b8161533b565b92915050565b60008083601f84011261393357600080fd5b8235905067ffffffffffffffff81111561394c57600080fd5b60208301915083602082028301111561396457600080fd5b9250929050565b60008135905061397a81615352565b92915050565b60008135905061398f81615369565b92915050565b6000815190506139a481615369565b92915050565b600082601f8301126139bb57600080fd5b81356139cb848260208601613890565b91505092915050565b600082601f8301126139e557600080fd5b81356139f58482602086016138ce565b91505092915050565b600081359050613a0d81615380565b92915050565b600060208284031215613a2557600080fd5b6000613a338482850161390c565b91505092915050565b60008060408385031215613a4f57600080fd5b6000613a5d8582860161390c565b9250506020613a6e8582860161390c565b9150509250929050565b600080600060608486031215613a8d57600080fd5b6000613a9b8682870161390c565b9350506020613aac8682870161390c565b9250506040613abd868287016139fe565b9150509250925092565b60008060008060808587031215613add57600080fd5b6000613aeb8782880161390c565b9450506020613afc8782880161390c565b9350506040613b0d878288016139fe565b925050606085013567ffffffffffffffff811115613b2a57600080fd5b613b36878288016139aa565b91505092959194509250565b60008060408385031215613b5557600080fd5b6000613b638582860161390c565b9250506020613b748582860161396b565b9150509250929050565b60008060408385031215613b9157600080fd5b6000613b9f8582860161390c565b9250506020613bb0858286016139fe565b9150509250929050565b60008060208385031215613bcd57600080fd5b600083013567ffffffffffffffff811115613be757600080fd5b613bf385828601613921565b92509250509250929050565b600060208284031215613c1157600080fd5b6000613c1f84828501613980565b91505092915050565b600060208284031215613c3a57600080fd5b6000613c4884828501613995565b91505092915050565b600060208284031215613c6357600080fd5b600082013567ffffffffffffffff811115613c7d57600080fd5b613c89848285016139d4565b91505092915050565b600060208284031215613ca457600080fd5b6000613cb2848285016139fe565b91505092915050565b6000613cc7838361422f565b60208301905092915050565b613cdc8161495e565b82525050565b6000613ced826147d2565b613cf78185614800565b9350613d02836147c2565b8060005b83811015613d33578151613d1a8882613cbb565b9750613d25836147f3565b925050600181019050613d06565b5085935050505092915050565b613d4981614970565b82525050565b6000613d5a826147dd565b613d648185614811565b9350613d748185602086016149e1565b613d7d81614bad565b840191505092915050565b6000613d93826147e8565b613d9d818561482d565b9350613dad8185602086016149e1565b613db681614bad565b840191505092915050565b6000613dcc826147e8565b613dd6818561483e565b9350613de68185602086016149e1565b80840191505092915050565b6000613dff602a8361482d565b9150613e0a82614bbe565b604082019050919050565b6000613e22602b8361482d565b9150613e2d82614c0d565b604082019050919050565b6000613e4560328361482d565b9150613e5082614c5c565b604082019050919050565b6000613e6860268361482d565b9150613e7382614cab565b604082019050919050565b6000613e8b601c8361482d565b9150613e9682614cfa565b602082019050919050565b6000613eae601f8361482d565b9150613eb982614d23565b602082019050919050565b6000613ed160218361482d565b9150613edc82614d4c565b604082019050919050565b6000613ef460208361482d565b9150613eff82614d9b565b602082019050919050565b6000613f1760248361482d565b9150613f2282614dc4565b604082019050919050565b6000613f3a60198361482d565b9150613f4582614e13565b602082019050919050565b6000613f5d601f8361482d565b9150613f6882614e3c565b602082019050919050565b6000613f80602c8361482d565b9150613f8b82614e65565b604082019050919050565b6000613fa360388361482d565b9150613fae82614eb4565b604082019050919050565b6000613fc6602a8361482d565b9150613fd182614f03565b604082019050919050565b6000613fe960298361482d565b9150613ff482614f52565b604082019050919050565b600061400c602a8361482d565b915061401782614fa1565b604082019050919050565b600061402f60208361482d565b915061403a82614ff0565b602082019050919050565b6000614052602c8361482d565b915061405d82615019565b604082019050919050565b600061407560058361483e565b915061408082615068565b600582019050919050565b600061409860208361482d565b91506140a382615091565b602082019050919050565b60006140bb601a8361482d565b91506140c6826150ba565b602082019050919050565b60006140de60298361482d565b91506140e9826150e3565b604082019050919050565b600061410160298361482d565b915061410c82615132565b604082019050919050565b6000614124602f8361482d565b915061412f82615181565b604082019050919050565b600061414760218361482d565b9150614152826151d0565b604082019050919050565b600061416a600083614822565b91506141758261521f565b600082019050919050565b600061418d60318361482d565b915061419882615222565b604082019050919050565b60006141b0602c8361482d565b91506141bb82615271565b604082019050919050565b60006141d360158361482d565b91506141de826152c0565b602082019050919050565b60006141f6601c8361482d565b9150614201826152e9565b602082019050919050565b600061421960208361482d565b915061422482615312565b602082019050919050565b614238816149c8565b82525050565b614247816149c8565b82525050565b60006142598285613dc1565b91506142658284613dc1565b915061427082614068565b91508190509392505050565b60006142878261415d565b9150819050919050565b60006020820190506142a66000830184613cd3565b92915050565b60006080820190506142c16000830187613cd3565b6142ce6020830186613cd3565b6142db604083018561423e565b81810360608301526142ed8184613d4f565b905095945050505050565b600060208201905081810360008301526143128184613ce2565b905092915050565b600060208201905061432f6000830184613d40565b92915050565b6000602082019050818103600083015261434f8184613d88565b905092915050565b6000602082019050818103600083015261437081613df2565b9050919050565b6000602082019050818103600083015261439081613e15565b9050919050565b600060208201905081810360008301526143b081613e38565b9050919050565b600060208201905081810360008301526143d081613e5b565b9050919050565b600060208201905081810360008301526143f081613e7e565b9050919050565b6000602082019050818103600083015261441081613ea1565b9050919050565b6000602082019050818103600083015261443081613ec4565b9050919050565b6000602082019050818103600083015261445081613ee7565b9050919050565b6000602082019050818103600083015261447081613f0a565b9050919050565b6000602082019050818103600083015261449081613f2d565b9050919050565b600060208201905081810360008301526144b081613f50565b9050919050565b600060208201905081810360008301526144d081613f73565b9050919050565b600060208201905081810360008301526144f081613f96565b9050919050565b6000602082019050818103600083015261451081613fb9565b9050919050565b6000602082019050818103600083015261453081613fdc565b9050919050565b6000602082019050818103600083015261455081613fff565b9050919050565b6000602082019050818103600083015261457081614022565b9050919050565b6000602082019050818103600083015261459081614045565b9050919050565b600060208201905081810360008301526145b08161408b565b9050919050565b600060208201905081810360008301526145d0816140ae565b9050919050565b600060208201905081810360008301526145f0816140d1565b9050919050565b60006020820190508181036000830152614610816140f4565b9050919050565b6000602082019050818103600083015261463081614117565b9050919050565b600060208201905081810360008301526146508161413a565b9050919050565b6000602082019050818103600083015261467081614180565b9050919050565b60006020820190508181036000830152614690816141a3565b9050919050565b600060208201905081810360008301526146b0816141c6565b9050919050565b600060208201905081810360008301526146d0816141e9565b9050919050565b600060208201905081810360008301526146f08161420c565b9050919050565b600060208201905061470c600083018461423e565b92915050565b6000604082019050614727600083018561423e565b6147346020830184613cd3565b9392505050565b6000614745614756565b90506147518282614a46565b919050565b6000604051905090565b600067ffffffffffffffff82111561477b5761477a614b7e565b5b61478482614bad565b9050602081019050919050565b600067ffffffffffffffff8211156147ac576147ab614b7e565b5b6147b582614bad565b9050602081019050919050565b6000819050602082019050919050565b600081519050919050565b600081519050919050565b600081519050919050565b6000602082019050919050565b600082825260208201905092915050565b600082825260208201905092915050565b600081905092915050565b600082825260208201905092915050565b600081905092915050565b6000614854826149c8565b915061485f836149c8565b9250827fffffffffffffffffffffffffffffffffffffffffffffffffffffffffffffffff0382111561489457614893614af1565b5b828201905092915050565b60006148aa826149c8565b91506148b5836149c8565b9250826148c5576148c4614b20565b5b828204905092915050565b60006148db826149c8565b91506148e6836149c8565b9250817fffffffffffffffffffffffffffffffffffffffffffffffffffffffffffffffff048311821515161561491f5761491e614af1565b5b828202905092915050565b6000614935826149c8565b9150614940836149c8565b92508282101561495357614952614af1565b5b828203905092915050565b6000614969826149a8565b9050919050565b60008115159050919050565b60007fffffffff0000000000000000000000000000000000000000000000000000000082169050919050565b600073ffffffffffffffffffffffffffffffffffffffff82169050919050565b6000819050919050565b82818337600083830152505050565b60005b838110156149ff5780820151818401526020810190506149e4565b83811115614a0e576000848401525b50505050565b60006002820490506001821680614a2c57607f821691505b60208210811415614a4057614a3f614b4f565b5b50919050565b614a4f82614bad565b810181811067ffffffffffffffff82111715614a6e57614a6d614b7e565b5b80604052505050565b6000614a82826149c8565b91507fffffffffffffffffffffffffffffffffffffffffffffffffffffffffffffffff821415614ab557614ab4614af1565b5b600182019050919050565b6000614acb826149c8565b9150614ad6836149c8565b925082614ae657614ae5614b20565b5b828206905092915050565b7f4e487b7100000000000000000000000000000000000000000000000000000000600052601160045260246000fd5b7f4e487b7100000000000000000000000000000000000000000000000000000000600052601260045260246000fd5b7f4e487b7100000000000000000000000000000000000000000000000000000000600052602260045260246000fd5b7f4e487b7100000000000000000000000000000000000000000000000000000000600052604160045260246000fd5b6000601f19601f8301169050919050565b7f43616e206f6e6c79206d696e74206f6e65206f72206d6f726520746f6b656e7360008201527f20617420612074696d6500000000000000000000000000000000000000000000602082015250565b7f455243373231456e756d657261626c653a206f776e657220696e646578206f7560008201527f74206f6620626f756e6473000000000000000000000000000000000000000000602082015250565b7f4552433732313a207472616e7366657220746f206e6f6e20455243373231526560008201527f63656976657220696d706c656d656e7465720000000000000000000000000000602082015250565b7f4f776e61626c653a206e6577206f776e657220697320746865207a65726f206160008201527f6464726573730000000000000000000000000000000000000000000000000000602082015250565b7f4552433732313a20746f6b656e20616c7265616479206d696e74656400000000600082015250565b7f596f7520617265206e6f74206f6e207468652050726573616c65204c69737400600082015250565b7f53616c65206d7573742062652061637469766520746f206d696e7420546f6b6560008201527f6e00000000000000000000000000000000000000000000000000000000000000602082015250565b7f4e6f7420656e6f7567682072657365727665206c65667420666f72207465616d600082015250565b7f4552433732313a207472616e7366657220746f20746865207a65726f2061646460008201527f7265737300000000000000000000000000000000000000000000000000000000602082015250565b7f4552433732313a20617070726f766520746f2063616c6c657200000000000000600082015250565b7f45746865722076616c75652073656e74206973206e6f7420636f727265637400600082015250565b7f4552433732313a206f70657261746f7220717565727920666f72206e6f6e657860008201527f697374656e7420746f6b656e0000000000000000000000000000000000000000602082015250565b7f4552433732313a20617070726f76652063616c6c6572206973206e6f74206f7760008201527f6e6572206e6f7220617070726f76656420666f7220616c6c0000000000000000602082015250565b7f4552433732313a2062616c616e636520717565727920666f7220746865207a6560008201527f726f206164647265737300000000000000000000000000000000000000000000602082015250565b7f4552433732313a206f776e657220717565727920666f72206e6f6e657869737460008201527f656e7420746f6b656e0000000000000000000000000000000000000000000000602082015250565b7f507572636861736520776f756c6420657863656564206d617820737570706c7960008201527f206f6620746f6b656e7300000000000000000000000000000000000000000000602082015250565b7f4552433732313a206d696e7420746f20746865207a65726f2061646472657373600082015250565b7f4552433732313a20617070726f76656420717565727920666f72206e6f6e657860008201527f697374656e7420746f6b656e0000000000000000000000000000000000000000602082015250565b7f2e6a736f6e000000000000000000000000000000000000000000000000000000600082015250565b7f4f776e61626c653a2063616c6c6572206973206e6f7420746865206f776e6572600082015250565b7f43616e27742061646420746865206e756c6c2061646472657373000000000000600082015250565b7f507572636861736520776f756c6420657863656564206d617820737570706c7960008201527f206f6620746f6b656e0000000000000000000000000000000000000000000000602082015250565b7f4552433732313a207472616e73666572206f6620746f6b656e2074686174206960008201527f73206e6f74206f776e0000000000000000000000000000000000000000000000602082015250565b7f4552433732314d657461646174613a2055524920717565727920666f72206e6f60008201527f6e6578697374656e7420746f6b656e0000000000000000000000000000000000602082015250565b7f4552433732313a20617070726f76616c20746f2063757272656e74206f776e6560008201527f7200000000000000000000000000000000000000000000000000000000000000602082015250565b50565b7f4552433732313a207472616e736665722063616c6c6572206973206e6f74206f60008201527f776e6572206e6f7220617070726f766564000000000000000000000000000000602082015250565b7f455243373231456e756d657261626c653a20676c6f62616c20696e646578206f60008201527f7574206f6620626f756e64730000000000000000000000000000000000000000602082015250565b7f50726573616c65206973206e6f74206163746976650000000000000000000000600082015250565b7f50757263686173652065786365656473206d617820616c6c6f77656400000000600082015250565b7f43616e6e6f742070757263686173652074686973206d616e7920746f6b656e73600082015250565b6153448161495e565b811461534f57600080fd5b50565b61535b81614970565b811461536657600080fd5b50565b6153728161497c565b811461537d57600080fd5b50565b615389816149c8565b811461539457600080fd5b5056fe697066733a2f2f516d5947417033477a316d35556d466856345056525250594533484c31416d4377454b4650786e673439387666622f68696464656e2e6a736f6ea2646970667358221220744bbbb4aba285a0b9236f5e639d9bf2cf9863fe4673010310886ece122eb57964736f6c63430008040033697066733a2f2f516d5a724c68664739544b647a614a57563935576f6b4e5831454161336879695467587a356e666970744e4e4b7a2f",
  "linkReferences": {},
  "deployedLinkReferences": {}
}